:020000040800F2
:10000000508604249D040008593E0108192F010858
:10001000513E0108693A000889A301080000000068
:10002000000000000000000000000000014901087D
:10003000E9460008000000009142010861490108FA
:10004000B7040008B7040008B7040008B7040008A4
:10005000B7040008B7040008B7040008B704000894
:10006000B7040008B7040008B7040008B93B00084B
:10007000C93B0008D93B0008E93B0008F93B0008F0
:10008000093C0008193C0008B7040008194700089B
:1000900029470008B7040008B7040008B70400089F
:1000A000B7040008B7040008B7040008B704000844
:1000B000B7040008B7040008B94B0108B7040008EA
:1000C000B7040008B7040008B7040008B704000824
:1000D0000147010809680108B7040008B7040008CF
:1000E000F1460008B704000800000000B70400084B
:1000F000B7040008B7040008B7040008293C00084A
:10010000B7040008B7040008B7040008B7040008E3
:10011000B704000881540108B7040008B7040008B8
:10012000393C0008493C0008593C0008B704000865
:10013000B7040008B7040008B7040008B7040008B3
:1001400000000000000000000000000000000000AF
:10015000B7040008B7040008B7040008B704000893
:10016000B7040008B7040008E13E0108D13E0108C9
:10017000B7040008F13E0108B704000800000000C1
:10018000B7040008B704000891540108B704000838
:10019000B7040008B704000811470108B7040008B5
:1001A000B7040008B7040008B70400080000000006
:1001B000B7040008B7040008B7040008B704000833
:1001C000B7040008B70400080000000000000000A9
:1001D0000000000000000000B7040008000000005C
:1001E000000000000000000000000000000000000F
:1001F0000000000000000000B7040008B704000879
:10020000B7040008B704000800000000B7040008A5
:10021000B7040008B7040008B7040008B7040008D2
:10022000B704000800000000B70400080000000048
:10023000B7040008B704000800000000B704000875
:10024000B7040008B7040008B7040008B7040008A2
:10025000B7040008B7040008B7040008B704000892
:10026000B7040008B7040008B7040008B704000882
:10027000B7040008B7040008B70400080000000035
:10028000B7040008B7040008B7040008B704000862
:1002900000000000B7040008B704000800000000D8
:1002A00000000000B7040008B7040008B704000805
:1002B000F9670108B7040008B704000839470008C7
:1002C000B7040008B7040008B704000800F002F8FB
:1002D00000F0D5F814A696E8000CB244B344DA4511
:1002E00001D100F0CCF8BAE80F000FA696E8300074
:1002F000A5EB040504EB0607AAEB0704A7F1010729
:100300004FEA15154FEA3414A4F10104AC4201D3AD
:1003100000F0B5F813F0010F18BFFB1A43F001030A
:1003200000F001F8DBE71847AC350400DC350400C9
:100330000A444FF0000C10F8013B13F0070408BF0B
:1003400010F8014B1D1108BF10F8015B641E05D0A9
:1003500010F8016B641E01F8016BF9D113F0080F5E
:100360001EBF10F8014BAD1C0C1B09D16D1E58BFF0
:1003700001F801CBFAD505E014F8016B01F8016B27
:100380006D1EF9D59142D6D370470000704700002A
:100390000023002400250026103A28BF78C1FBD88E
:1003A000520728BF30C148BF0B6070476E2900F06C
:1003B0007784702900F0C185662902F0A7A165291C
:1003C00002F0A4A1672902F0A1A1612902F0A0A175
:1003D00003681B0A28BF41F08001692900F02484CA
:1003E000642900F02184752900F01E846F2900F033
:1003F0004F85782900F08D85E92900F0E984E4290A
:1004000000F0E684F52900F0E384EF2900F04C8544
:10041000F82900F08C850368DB0928BF41F08001D2
:10042000632901F06F86732901F07486E32901F0D6
:100430009186F32901F09686002070471FB542F09F
:1004400055F99DE8030001F0EBF902F01DFC0400F2
:100450000020002142F02CF9401C606000200021A7
:1004600042F010F9E06002F0D5FA00F0A7FA1FBDE3
:1004700010B5002002F0AEFB02F035FB10BD02F01B
:10048000D5FB1146FFF7DAFF3EF02AFF02F0A6FD8A
:1004900003B4FFF7EDFF03BC3EF0DAFE09488047E6
:1004A00009480047FEE7FEE7FEE7FEE7FEE7FEE756
:1004B000FEE7FEE7FEE7FEE704480549054A064B6E
:1004C00070470000794A0108CD0200085046002418
:1004D000508604245046042450460424704753EAAE
:1004E000020C00F069802DE9F04B4FF00006002B64
:1004F0001FBFB3FA83F503FA05F424FA05F65E404C
:1005000012BF1643B2FA82F502FA05F4C5F12005CE
:100510001EBF22FA05FC44EA0C04203556EA044CBE
:100520004FEA144418BF641C4FF000084FF0000954
:10053000904271EB030C39D3002919BFB1FA81F74E
:1005400001FA07F6B0FA80F700FA07F6C7F12007BC
:100550001EBF20FA07FC46EA0C062037B6FBF4FC67
:10056000A7EB0507103F07F01F0BCBF120062CFA75
:1005700006F60CFA0BFB44BFB3460026202FA4BF9F
:100580005E464FF0000B5BEA060C08BF4FF0010B14
:1005900019EB0B0948EB0608ABFB027C06FB02CC0F
:1005A0000BFB03CCC01B71EB0C01C1E70B460246F1
:1005B00041464846BDE8F08B13B5084318BF4FF0DD
:1005C000FF300146AFF30080BDE81C4070470000DB
:1005D0000FB41CB5084B06AA7B44694600900598E9
:1005E00000F077FB04460020694600F085FB2046BA
:1005F0001CBC5DF814FB00001D0700007CB51D4607
:1006000016460C00009007D04142A14202D320447C
:10061000401E01E04FF0FF30064B7B442A466946FE
:100620000190304600F055FB002C02D0009A0021CA
:1006300011707CBDE50600000FB400B58DB010A9A7
:10064000099000910B904FF0FF300A9000200C9021
:10065000064878440690064878446A4607900F9901
:1006600009A800F001FF0DB05DF814FB330E000087
:100670004B0E00000B460146184601F096B830B507
:1006800005460B462A4613F8014B12F8010B08B138
:10069000A042F8D01CB1002802D06D1CF1E728461A
:1006A00030BD40EA0103024630B59B0710D14FF040
:1006B000013400E008C208C91D1B9D4315EAC41F90
:1006C000F8D013F0FF0102F8011B0DD01B0AF8E768
:1006D00011F8013B002B02F8013B05D011F8013B5A
:1006E000002B02F8013BF3D130BD10B5431C02E0F2
:1006F00010F8011B71B18107FAD14FF0013202C825
:100700008C1A8C4314EAC211F9D0C01A0A0603D01D
:10071000C01E10BDC01A10BD0A0401D0801E10BD3D
:100720000902FCD0401E10BD032A40F2308010F0B8
:10073000030C00F0158011F8013BBCF1020F62447C
:1007400098BF11F801CB00F8013B38BF11F8013B0D
:10075000A2F1040298BF00F801CB38BF00F8013BBA
:1007600011F0030300F06780083AC0F0088051F8E8
:10077000043B083A51F804CBA0E80810F5E7121D35
:100780005CBF51F8043B40F8043BAFF30080D20754
:1007900024BF11F8013B11F801CB48BF11F8012B20
:1007A00024BF00F8013B00F801CB48BF00F8012B43
:1007B0007047431A28BF9A427FF6B6AF10441144DF
:1007C000032A40F2268010F0030F1EBF11F8013DEE
:1007D000521E00F8013D10F0030F7FF4F6AF11F048
:1007E000030300F06D80083AC0F00B8051F8043D1F
:1007F000083A51F804CD40F8043D40F804CDFFF725
:10080000F3BF121D5CBF51F8043D40F8043DAFF347
:100810000080D20724BF11F8013D11F801CD48BF77
:1008200011F8012C24BF00F8013D00F801CD48BFAC
:1008300000F8012C704710B5203AC0F00B80B1E8E9
:100840001850A0E81850B1E81850A0E81850203A05
:10085000BFF4F5AF5FEA027C24BFB1E81850A0E80E
:10086000185044BF18C918C0BDE810405FEA827C28
:1008700024BF51F8043B40F8043B08BF7047D2073F
:1008800028BF31F8023B48BF11F8012B28BF20F8E0
:10089000023B48BF00F8012B7047431A28BF9A4219
:1008A0007FF6C9AF1044114410F0030F1EBF11F8BA
:1008B000013D521E00F8013D10F0030F7FF4F6AF2A
:1008C000103AC0F00A8010B531E9185020E91850EC
:1008D000103ABFF4F9AFBDE81040530724BF31E927
:1008E000081020E9081044BF51F8043D40F8043DC9
:1008F00012F0030F08BF7047D20728BF31F8023D3E
:1009000048BF11F8012C28BF20F8023D48BF00F86D
:10091000012C704702F0FF0343EA032242EA02423D
:1009200000F024B84FF000020429C0F0128010F04B
:10093000030C00F01B80CCF1040CBCF1020F18BFBB
:1009400000F8012BA8BF20F8022BA1EB0C0100F04E
:100950000DB85FEAC17C24BF00F8012B00F8012B21
:1009600048BF00F8012B70474FF0000200B5134656
:1009700094469646203922BFA0E80C50A0E80C50BF
:10098000B1F12001BFF4F7AF090728BFA0E80C5070
:1009900048BF0CC05DF804EB890028BF40F8042B69
:1009A00008BF704748BF20F8022B11F0804F18BFD6
:1009B00000F8012B704770477047704708487CB5B6
:1009C0007844009007487844009C0546019004E074
:1009D0002046016808448047241DAC42F8D17CBD04
:1009E0007C300400BA300400704770B5064600F051
:1009F000F3FE056806F10B0020F00704B4429CBF2B
:100A0000002070BD2B466A68BAB11068A04210D3AE
:100A100004F1080188423CBF5068586007D3516810
:100A2000101941601168091B016058601460101DA5
:100A300070BD13465268002AE7D12146284600F0CF
:100A4000DBFE0028DED170BD70B50446051F00F046
:100A5000C3FE0068002C14BF446870BD002C18BF92
:100A6000AC423CBF20466468F8D301680A18AA4229
:100A700018BF456003D12A68054611440160286803
:100A80004119A1421CBF6C6070BD6168696021683A
:100A90000844286070BD2DE9F04791460C46804619
:100AA00000F09AFE0768604234EA000001D1042C8D
:100AB00002D20520BDE8F087601E40F0070609F16C
:100AC0000B0020F007054D4539D93B467A6882B3C3
:100AD0001468101D404206EA000C644525D9A4EBB9
:100AE0000C00854221D8BCF1000F0BD010460168E4
:100AF0006244A1EB0C01116041685160C0F800C074
:100B000058600346116805F10800814205D3501969
:100B1000491B016015605860034652F8040F586085
:100B20000020C8F80020BDE8F08713465268002A6C
:100B3000CED12946384600F05FFE0028C5D10620F8
:100B4000BDE8F08710B500F04FFE006810BD10B58D
:100B5000044600F049FE046010BD0B4601461846ED
:100B600001F0DCBA70B5044685690068C10601D59C
:100B7000302600E02026C00707D070BDD4E901214F
:100B800030469047206A401C20626D1EF6D570BD2D
:100B900070B5044685690078C00707D170BDD4E9F7
:100BA000012120209047206A401C20626D1EF6D54E
:100BB00070BD09684A0501D540B27047C905FCD52A
:100BC00000B2704709684A0501D5C0B27047C9052F
:100BD000FCD580B2704770B50C460546012A05D099
:100BE0002878800600D5EA69002302E0012305E0A9
:100BF0005B1C934202D2E05C0028F9D1A869E61898
:100C0000C01AA861286A184428622846FFF7AAFF7C
:100C100004E0D5E9012114F8010B9047B442F8D360
:100C20002846FFF7B5FF70BD2DE9F04106460024C8
:100C300010687529314616A510D0FFF7BAFF0028B5
:100C400002DA404213A507E031688A0701D512A5F0
:100C500002E0490704D511A5012401E0FFF7B2FF26
:100C600000210A2206F1240709E0B0FBF2FCB0FBE8
:100C7000F2F302FB1C00303078541846491C00285F
:100C8000F3D123462A463046BDE8F04100F04BBE82
:100C9000000000002D0000002B00000020000000DC
:100CA00011680268006A530501D508700AE0D3058F
:100CB00001D5088006E0130603D5C217C1E900027A
:100CC00000E008600120704701694A1C0261087851
:100CD000704700B58FB0CDE901310021059105497C
:100CE0007944CDE903101146684600F031F90FB0A0
:100CF00000BD0000E5FFFFFF0A6802F8010B0A6073
:100D00007047D1E900239A4202D2531C0B60107045
:100D1000704700002DE9FF5F15468A460446DFF85C
:100D2000AC80F8440027D8E900103E46CDE9001019
:100D300010E03AF816106A4602A801F027FF411C9D
:100D400007D02178890603D5E269391891420DD878
:100D50000744761C2078800602D5E069B84205DD9C
:100D6000AE42E6DB3AF816000028E2D1A069C01BCB
:100D7000A0612046FFF7F6FED8E90010CDE900108B
:100D8000002017E03AF818106A4602A801F0FEFEAB
:100D9000B0F1FF3F81460BD000250DF1080B05E0B7
:100DA000D4E901211BF8050090476D1C4D45F7D390
:100DB00008F10100B0428046E4DB206A384420623A
:100DC0002046FFF7E5FEBDE8FF9F0000EA1A040099
:100DD0002DE9F0418046D21D22F007020025D2E91C
:100DE0000002F52915A614D0011E72F1000106DAE1
:100DF0000023D0EB030063EB020211A608E0D8F851
:100E000000108B0701D50FA602E0490701D50EA6F9
:100E100001251146002408F1240704E000F035FD07
:100E200030323A55641C50EA0102F7D12B46324663
:100E300021464046BDE8F04100F075BD00000000CD
:100E40002D0000002B0000002000000030B4002125
:100E500000F1240408E002F00705D208303542EA28
:100E60004372DB086554491C52EA0305F3D1046858
:100E7000002310A2250708D504F020040C4304D059
:100E8000C46901230CA2641EC46130BC00F04BBDD8
:100E900010B5044621461068FFF794FE024620462E
:100EA000BDE810400023D1E7D21D22F00701D1E9AF
:100EB0000023CBE70000000030000000F0B40D4636
:100EC0000188090502D5214C7C4402E01F4C7C447A
:100ED0000E34002100F1240608E002F00F07120989
:100EE000E75D42EA03721B097754491C52EA030783
:100EF000F3D102780023120704D5702D06D009B172
:100F0000022311342246F0BC00F00DBD0123103441
:100F1000F8E770B504460D4621461068FFF752FE0B
:100F2000024629462046BDE870400023C6E7D21D90
:100F300022F00703D3E90023C0E70368126843F0F7
:100F4000200303600823C3610023B7E74C190400A2
:100F50002DE9F05F894604464FF0000ADFF874B1CE
:100F6000FB44C0F820A02046E1688847002874D0E0
:100F7000252806D0D4E901219047206A401C206230
:100F8000F1E700265F462046E168884720280546AD
:100F900007DB312D05D2781910F8200C08B1064373
:100FA000F1E7B00701D526F00406C4F81CA000271D
:100FB000C4F818A02A2D09D0284641F015FB38B3F3
:100FC00004EB8708303DC8F8185019E059F8041BA5
:100FD000204604EB87029161E1688847012F0546AE
:100FE00018D1E069002820DA26F020061DE0D8F8A4
:100FF000180000EB800005EB40003038C8F81800FE
:101000002046E1688847054641F0EEFA0028EED117
:10101000012F0AD02E2D08D12046E16888477F1C79
:101020000546022F46F02006C4DBA069002803DA3B
:10103000404246F00106A061F00701D026F01006FC
:101040006C2D0BD0682D09D04C2D39D06A2D35D0A0
:10105000742D35D07A2D33D016E038E0E1682F4674
:1010600020468847B842054609D16C2F26D04FF458
:101070008060E168064320468847054604E06C2FFF
:101080001AD04FF4807006430DB3A5F14100192822
:1010900002D8203546F400664A4629462046266096
:1010A0004E46FFF783F980B101280BD0F61D26F0DC
:1010B000070000F1080956E74020E4E78020D8E760
:1010C0000020D6E706F104094DE7284652E7206ADA
:1010D000BDE8F09FDC1804002DE9FF4F1C46914647
:1010E0004FF0FF3581B000218A468846D4E9016778
:1010F000A16902986D1C8847216A834688470028A9
:10110000F6D1BBF1FF3F0CD0002F26F4C0661ADDEC
:10111000700615D5BBF12B0F0AD0BBF12D0F0FD1E7
:1011200004E04FF0FF3005B0BDE8F08F46F4806674
:10113000A16902986D1C88477F1E8346002F02DD3F
:10114000BBF1300F03D0B9F1000F2AD025E0A1691F
:101150006D1C02987F1E46F400768847002F834658
:1011600005DDBBF1780F06D0BBF1580F03D0B9F104
:10117000000F10D011E0B9F1000F02D0B9F1100F3B
:101180000BD1A1696D1C02987F1E26F4007688475A
:101190008346102000E0082081464FEAE970009065
:1011A00017E00A20F8E74346AAFB0928DDF800C04B
:1011B0007F1E03FB098046F4007605F101050AFB5A
:1011C0000C0112EB0B0A029841EBEB78A1698847FE
:1011D0008346002F06DD4946584600F0C7FF5FEA08
:1011E000000BE0D5E16902988847B00502D46FF0A2
:1011F000010098E7F00718D1700610D55146700528
:1012000005D50023D1EB030163EB080200E0424661
:101210002068031D23600068C0E9001205E0206813
:10122000011D21600068C0E900A828467BE72DE980
:10123000FF5F1D464FF0FF3B91464FF000085F46B1
:10124000D5E90146A96901987F1C8847296A824629
:1012500088470028F6D1BAF1FF3F0CD0002E24F4C5
:10126000C06419DD600614D5BAF12B0F09D0BAF1AC
:101270002D0F0ED103E0584604B0BDE8F09F44F4B2
:101280008064A96901987F1C8847761E8246002EDB
:1012900002DDBAF1300F03D0B9F1000F26D032E0F1
:1012A000A969761E01987F1C44F400748847002EBB
:1012B000824605DDBAF1780F06D0BAF1580F03D097
:1012C000B9F1000F10D01EE0B9F1000F02D0B9F152
:1012D000100F18D1A969761E01987F1C24F40074A0
:1012E00088478246102002E0082000E00A2081465C
:1012F00009E0A96908FB0908761E01987F1C44F4DF
:10130000007488478246002E05DD4946504600F0AD
:101310002DFF0028EDDAE96901988847A00502D47D
:101320006FF00100A8E7E00725D1600613D560053E
:1013300002D5C8F1000000E0404629680A1D2A6075
:101340000968220501D5087015E0220701D508803B
:1013500011E008600FE02868011D29600068210580
:1013600002D580F8008006E0210702D5A0F80080B1
:1013700001E0C0F8008038467EE72DE9FF5F4FF0BE
:1013800000089946144646469169D2E901A7DDF85E
:1013900038B001988847054659EA0B0005D009E0A6
:1013A000A1690198761C88470546216A2846884726
:1013B0000028F5D1681C03D05FEACA7005D015E09B
:1013C0004FF0FF3004B0BDE8F09F2068011D2160A0
:1013D000D0F800800AE05FEACA7001D108F8015B2A
:1013E000A169761C01987F1E88470546002F1ADDEB
:1013F000681C18D0B9F1000F0DD0E81705EBD060CC
:10140000421120F01F0059F822102A1A01209040A2
:101410000142E0D107E0BBF1000FDCD12846216A90
:1014200088470028D7D0E16901988847BBF1000FB1
:1014300007D1002E05DD5FEACA7002D1002188F8CD
:101440000010A068B84203DDBBF1000F03D017B154
:101450006FF00100B6E73046B4E7000002681144BF
:101460001378016018467047D1600549794451618D
:1014700004497944116200211161114600F084BED3
:10148000EDFFFFFF9F040000426842B1016811F8C0
:10149000013B23B1521EC0E90012184670470121DA
:1014A000C160881E704742685AB1C368016843B979
:1014B00083688B4205D0491E521CC0E900120020EF
:1014C00070474FF0FF3070472DE9FF4F4FF0000895
:1014D0009A461446C146464683B0D2E901B7CDF8D4
:1014E0000080CDF8048091690498884710990546DA
:1014F0005AEA010005D009E0A1690498761C8847E2
:101500000546216A284688470028F5D1681C03D083
:101510005FEACB7005D02AE04FF0FF3007B0BDE89E
:10152000F08F2068011D2160D0F800801FE002A824
:101530006A46E9B201F00AFB411C07D0801C09D0C1
:101540004FF000095FEACB7007D00AE0E169049828
:1015500088473EE04FF0010904E0BDF8081028F884
:10156000021B7F1EA1690498761C88470546002F40
:101570001ADD681C18D0BAF1000F0DD0E81705EB82
:10158000D060421120F01F005AF822102A1A0120C0
:1015900090400142CBD107E010980028C7D12846DF
:1015A000216A88470028C2D0E16904988847B9F1C8
:1015B000000F0ED1109830B9002E04DD5FEACB7019
:1015C00001D1A8F80000A068B84202DD109818B157
:1015D00017B16FF00100A1E730469FE72DE9FF4FFB
:1015E0004FF000089B461446454683B0D2E9019669
:1015F000CDF80080CDF804809169DDF848A004980A
:10160000884707465BEA0A0005D009E0A16904980B
:101610006D1C88470746216A384688470028F5D15F
:10162000781C03D05FEAC97005D01BE04FF0FF3093
:1016300007B0BDE8F08F2068011D2160D0F8008060
:1016400010E05FEAC97007D16A464046B9B201F0BE
:101650009DFA411C31D08044A1696D1C0498761E0E
:1016600088470746002E14DD781C12D0BBF100001D
:1016700007D03B46DDE9101201F0BCF90028E0D1AB
:1016800007E0BAF1000FDCD13846216A884700280C
:10169000D7D0E16904988847BAF1000F06D1002D30
:1016A00004DD5FEAC97001D188F80000A068B0428B
:1016B00003DDBAF1000F03D016B16FF00100B7E7F8
:1016C0002846B5E72DE9FF5F9B46144600273D46B7
:1016D0009169D2E90196DDF840A0019888478046DB
:1016E0005BEA0A0005D009E0A16901986D1C8847F2
:1016F0008046216A404688470028F5D1B8F1FF3F6F
:1017000003D05FEAC97005D014E04FF0FF3004B099
:10171000BDE8F09F2068011D216007680AE05FEACC
:10172000C97001D127F8028BA1696D1C0198761E42
:1017300088478046002E15DDB8F1FF3F12D0BBF17F
:10174000000007D04346DDE90E1201F053F90028EE
:10175000E5D107E0BAF1000FE1D14046216A8847A0
:101760000028DCD0E16901988847BAF1000F05D163
:10177000002D03DD5FEAC97000D13880A068B04257
:1017800003DDBAF1000F03D016B16FF00100BEE720
:101790002846BCE710B5002001F03DFAFEF768FED0
:1017A000BDE8104001203DF053BD2DE9F041074652
:1017B00015460E461020FFF718F904000AD067609E
:1017C000C4E9026500F00CF80168216004600020A3
:1017D000BDE8F0810120FBE7004870473C0300248E
:1017E000004870476C03002400487047340300240D
:1017F000704770477047704738B504460A46002066
:101800006946AFF30080002808BF38BD0246009942
:10181000204601F03DFA012038BD012001F00BBC4B
:10182000F8B5AFF30080054600200C460C2000BF41
:101830000646A819A0420DD9324669460020AFF3EA
:101840000080070008BF01F0F6FB0098A04218BF17
:101850000546C419FFF7C0FF05600746F01D20F0DC
:1018600007004619284600F00AF8B44208BFF8BD40
:10187000A21B31463868BDE8F84001F009BA0021E2
:101880000160416070470C20704730B5B0F10A022A
:1018900071F100034FEA900E4EEA817EB0EB0E002C
:1018A00061EB91014FEA101E4EEA017E10EB0E0033
:1018B00041EB11114FEA102E4EEA016E10EB0E00B3
:1018C00041EB11214FEA104E4EEA014E10EB0E0093
:1018D00041EB1141401841F100014FEAD00040EACC
:1018E00041704FEAD1014FEA810444EA907410EB51
:1018F000800544EB01046D1944EB0404521BA34121
:101900004FF0000348BF0A3200D530BD401C41F102
:10191000000130BD10B5044601F0AEF90068005D6D
:1019200000F0010010BD2DE9F0470D4699469246A2
:10193000044600F124080168880604D5E06921F016
:101940001001216000E00120A84201DD471B00E0FA
:101950000027A1697A1902EB0900081AA061207812
:10196000C00602D42046FFF7FDF8002608E0D4E9BF
:1019700001211AF806009047206A401C761C20625C
:101980004E45F4DB2078C0060AD52046FFF7EAF87A
:1019900006E0D4E9012130209047206A401C2062F3
:1019A000381EA7F10107F4DC07E0D4E9012118F89B
:1019B00005009047206A401C2062281EA5F1010501
:1019C000F3DC2046FFF7E4F82078000602D5022079
:1019D000BDE8F0870120FBE72DE9FF4F0C461E46CE
:1019E0004FF0FF378BB0D2E90001DDF860800A903C
:1019F0008A46C1F30A5505B93D46002108464FF015
:101A00000000BAF1000F00F4400005DA00EB80009E
:101A10004FF4400101EA50004FEA9059B9F1010F2B
:101A200000DDB9460A9850EA4A000ED044F610503C
:101A3000A5F2FF3545432F14B8F1000F1ED07542B3
:101A4000291E1EDDC9F100021CE0B8F1010F4FF0A4
:101A5000000001D0302103E0F24305E02154401C96
:101A6000B042FBDB30460022002121540B99C1F823
:101A70000880C1E900200FB0BDE8F08FBD1B6D1CD0
:101A8000DEE74A4600DA694206A801F06FF906ABC4
:101A900093E8070003AB83E8070050460A9940F03B
:101AA0007FF88DE80700A0F500501F3800900398DC
:101AB000002D0ADD42F21F014A460844002303A913
:101AC0000390684640F02AFB09E0A0F500504A4622
:101AD0001F38002303A90390684640F049FB8DE8B6
:101AE00007000004000C03D04FF0FF30410800E075
:101AF0001046B8F1000F03D00022009215461EE0F8
:101B0000751E05D4FFF7C1FE303262556D1EF9D542
:101B1000B3460122084302D000227F1C04E0207853
:101B2000302801D100227F1E002A099784D01DE0B1
:101B3000112D07DAFFF7A9FE303262556D1C50EA0D
:101B40000102F5D1084302D00098C8B10EE000218F
:101B5000681E05E0235C625C63542254401E491CED
:101B60008142F7DBAB46A81B401E0990002004F819
:101B70000B000B98099AC0F80880C0E9002B7AE79F
:101B800011264FF0000857E72DE9F04F884604462C
:101B9000D21D22F0070191B0D1E90001CDE90A017F
:101BA00040F032FC02460B98C00F01D02D2007E018
:101BB0002068810701D52B2002E0202101EAC00026
:101BC000032A099001D0072A05DB03464146204637
:101BD00001F08CF80BE12078800601D5E06900E087
:101BE0000620B8F1650F814606D0B8F1660F18D00F
:101BF000B8F1670F70D131E00020B9F1110F0090FA
:101C000001DB112301E009F101030AAA01A90CA8D3
:101C1000FFF7E2FEDDE90C70002609F101058346BD
:101C200047E001204B4600904FF000470AAA01A967
:101C30000CA8FFF7D1FEDDE90DB00C995D4600263A
:101C400010B909F101000D18B9EB050003D4C0F17A
:101C5000FF3609F10105A5EB09002BE0B9F1010FF1
:101C600001DA4FF001090020B9F1110F0090484648
:101C700001DD112300E003460AAA01A90CA8FFF721
:101C8000ABFEDDE90C704D46002683462078000748
:101C90000AD4AB4500DA5D4601A8012D04DD4119E7
:101CA00011F8011C302907D04F4502DA17F1040F53
:101CB00004DA012082460FE06D1EEEE7002F02DC01
:101CC000ED1B3E4403E0781CA84200DD7D1CB81BE0
:101CD00000F1010A4FF000472078000703D4AA451D
:101CE00001DB4FF0FF3A0021B7F1004F0DF143083F
:101CF0008DF8431024D002202B23002F01DA7F42DD
:101D00002D230A21021EA0F1010000DC5FB197FB28
:101D1000F1FC97FBF1F201FB1C7C17460CF1300C37
:101D200008F801CDEEE7A8F101000370218809054C
:101D300001D5452100E06521A0F1010800F8011C52
:101D400009980FA9A1EB0807FF1D00B10120411957
:101D500001EBEA70A1693844081A401EA06120789E
:101D6000C00602D42046FEF7FDFE099828B1D4E94A
:101D700001219047206A401C20622078C00622D5AD
:101D80002046FEF7EFFE1EE0002E04DBB34502DD29
:101D900001A8805D00E03020D4E901219047206A4D
:101DA000401C2062761CAAF101005FEA000A0AD1F9
:101DB00000F06AFFC0680168405CD4E901219047E7
:101DC000206A401C2062281EA5F10105DCDC07E02A
:101DD000D4E9012118F8010B9047206A401C2062C9
:101DE000381EA7F10107F3DC2046FEF7D1FE0320E1
:101DF00011B041E62DE9F04F04460D46D21D22F008
:101E0000070089B0D0E900974846394640F0FCFA0F
:101E10000246F80F01D02D2307E02068810701D585
:101E20002B2302E0202101EAC0038DF820300BB102
:101E3000012000E00020032A824601D0072A04DBAB
:101E40002946204600F052FF3FE12078800601D469
:101E50000D2500E0E569C7F30A560D2D49DA00218A
:101E60004FEA175B08464FF00000002F00F44000D7
:101E700007DA00EB80004FF4400100EBD07001EA7C
:101E800060008115012901DD4FF0FF3100224FEA8A
:101E9000850CBCF1180F06D31346ACF118004FF0B7
:101EA0008052C24003E04FF4801323FA0CF30CF18C
:101EB0000C0CBCF1200F04D3ACF1200C09FA0CF08F
:101EC00001E007FA0CF000294FF0004801DD18B9D5
:101ED0000FE00ED140450CD319EB02095F4121B947
:101EE000404502D19F4329EA0209BBEB175F00D0AE
:101EF000761C2088000502D57B48784402E07A48A9
:101F00007844193808AA302302F80A30037C0AF111
:101F10000101002E0AF1020A53546A4602DC4FF016
:101F2000300101E04FF031014FF001088DF8001051
:101F300002D0A6F2FF3603E059EA470100D06B4E0B
:101F4000002D02DC2178090704D54FF002082E216C
:101F50008DF80110C44600210BE0C7F303433F0195
:101F6000C35C491C6D1E02F80830052908F1010800
:101F700001DA002DF1DC00210CE000EB1973491CA3
:101F80001B786D1E082902F808304FEA091908F17C
:101F9000010801DA002DF0DC21688B0602D516E07D
:101FA000A8F10108E04505DD02EB080313F8013C48
:101FB000302BF5D0B8F1000F09DD02EB080313F860
:101FC000013C2E2B03D1090701D4A8F10108002DF3
:101FD00005DD3E2102F808106D1E08F10108407C65
:101FE000002E02F8080008F1010804DA2D207642DC
:101FF00002F8080002E02B2002F808000A214FF442
:102000007A70864208F101080BDB96FBF0F330335F
:1020100002F8083096FBF0F308F1010800FB1366A4
:1020200001E0642E0CDB642096FBF0F3303302F801
:10203000083096FBF0F308F1010800FB136601E09D
:102040000A2E06DB96FBF1F0303002F8080008F1AA
:10205000010896FBF1F001FB1060303002F8080037
:10206000A16908F1010808EB050202EB0A00081A51
:10207000A0612078C00602D42046FEF773FD216AD5
:1020800008AE01EB0A00206204E0D4E9012116F851
:10209000010B9047BAF1010AF7D22078C00602D5A9
:1020A0002046FEF75FFD6E4609E016F8010B3E285C
:1020B0000FD0D4E901219047206A401C2062B8F17A
:1020C0000108F2D22046FEF763FD09B00320BDE807
:1020D000F08F206A2844206203E0D4E901213020F7
:1020E00090476D1EEBD3F8E76609040002FCFFFF82
:1020F00010B5436913B1AFF3008001E0FEF76BFD4B
:10210000012010BD127800F124010A7000224A70EB
:102110000122EDE711684FF0FF32E9E7074B70B598
:102120000D467B44FEF7D5FD0446284600F090FEA0
:1021300010B14FF0FF3070BD204670BD73D1030069
:1021400010B5436913B1AFF3008001E0FEF7E2FD83
:10215000012010BD128800F1240182840022C28473
:102160000122EDE711684FF0FF32E9E73A2800D28B
:10217000303820F02002412A01D3A2F137008842F2
:1021800001D34FF0FF3070472DE9F34F4FF0000AB5
:102190000C4656468DB001200C9001F10C000B90BE
:1021A00062690B9801219047051E2DD0252D2CD05A
:1021B000216A8847C0B162690B9801219047216A62
:1021C00088470028F7D16269411E0B98904700E0CC
:1021D000761CA1690D988847216A88470028F7D1A5
:1021E000E1690D988847DBE7A1690D988847A84207
:1021F000074601D1761CD3E7E1690D9888477F1C1B
:1022000002D1BAF1000F6FD06BE162690B98002721
:102210003D46394690472A2804D162690B9801212E
:1022200090470125DFF8D08262690B980121904721
:10223000A0F130010A290AD24745E5DC07EB870106
:1022400000EB4107303FDFD445F01005ECE7E9062D
:1022500001D46FF000476C280AD04C2814D06828AD
:1022600015D06A280DD074281CD07A281AD01DE009
:1022700062690B98012190476C2802D045F0040553
:1022800014E045F002050DE045F020050AE0626922
:102290000B9801219047682802D045F0080505E019
:1022A00045F4006562690B9801219047C4E9015724
:1022B00065283DD019DC58287AD00CDC452837D069
:1022C00004DC252826D041289ED131E046282FD095
:1022D000472899D12CE05B2877D0612828D0632843
:1022E0007CD0642823D15AE0F6E06F2848D008DC7F
:1022F00066281DD067281BD0692821D06E2816D1EA
:1023000027E0702845D0732868D0752847D07828F2
:102310000DD14DE0A1690D988847252805463FF469
:1023200069AFE1690D9888476D1C3FF46AAFD8E04A
:102330000D9923466A466FF0010040F04BFAC5E064
:1023400045F0400023464FF000026060A80736D4F5
:102350003EE0E8077FF447AF2068011D2160006878
:10236000290501D506701BE7290701D5068017E767
:10237000A90703D5F117C0E9006111E706600FE76F
:1023800045F0400023464FF008026060A80716D4CD
:102390001EE040F60E0125EA0100606016E045F0FF
:1023A000400023464FF00A026060A80707D40FE000
:1023B00045F040006060A80708D5234610220D991B
:1023C0006FF00100FEF788FE80E007E01022234650
:1023D0000D996FF00100FEF72AFF77E04FF000093A
:1023E00063284F46C8464B46CB4602D05B2806D0F2
:1023F00038E0E80601D40120A060012732E06269DC
:10240000D4F80CB00B98012190475E2807D14FF00B
:10241000010949466269D4F80CB00B9890472169CC
:1024200039B900210A4603AB43F82120491C082989
:10243000FADBD8B3216949B308F1010862690B9846
:10244000012190475D28F4D1B9F1000F09D0002097
:1024500003A951F82020D24341F82020401C08282D
:10246000F7DB03AB2069002820794FEA40701ED0CB
:102470005B462246CDF80080CDE901970D990028F2
:102480006FF0010020DAFFF71DF91FE0C11703AA62
:1024900000EBD1614B1121F01F0102EB8302411AC5
:1024A00013680120884003431360C7E719E00D99C2
:1024B000224600286FF00100009702DAFFF704F8C7
:1024C00004E0FEF75AFF01E0FFF788F800280ADA77
:1024D000401C06D10C9820B14FF0FF300FB0BDE882
:1024E000F08F5046FAE7E90701D10AF1010A0644E4
:1024F00000200C9054E60000CCCCCC0C2DE9FF4F12
:1025000006468BB00878FF2806D0491C2D2805D038
:1025100000244FF0000908E000200CE00124F8E757
:1025200009EB8903491C00EB43090878FF28F7D120
:1025300014B1C9F100008146107800252C46AA4646
:1025400029462D2801D02B2804D1521C2D2813D028
:10255000002082468B461078FF280FD04FF0000CE9
:102560000A21521CA5FB017804FB018105FB0C111B
:10257000C5194BEB0104EEE70120EAE7002108460C
:102580004FF00000BAF1000F02D000EB80004008CD
:10259000C0F38157012F01DD4FF0FF370E9955EA47
:1025A000040009EB01080BD04FF0020918F5FA7F7F
:1025B00016DA4FEACA70002F706008DD012007E0CC
:1025C0004FEACA70C6E900B00FB0BDE8F08F002036
:1025D0003060FFF709F9C0F800901821084616E0AE
:1025E000B8F5FA7F18DD002F02DAF748784401E0E9
:1025F000F6487844D0E90010C6E9001040EACA70F5
:102600007060FFF7F1F8C0F80090142108460FB091
:10261000BDE8F04F40F077B8002108464FF00000C9
:10262000B8F10001099002DAC7F1000200E03A4671
:1026300001DAC8F1000106A800F098FB06AB93E8A8
:10264000070003AB83E8070044F23E005BEA0401A5
:102650000090584604D144F21E012C465D4600917C
:10266000210C0904014306D10099240444EA1544CD
:102670002D041039009104F07F41014306D10099E7
:10268000240244EA15642D020839009104F07041D7
:10269000014306D10099240144EA15742D01091F54
:1026A000009104F04041014306D10099A40044EA9E
:1026B0009574AD00891E009104F00041084304D1D7
:1026C00000986D196441401E00904FF001033A4696
:1026D0006846B8F1000FCDE9014503A902DD3FF0DE
:1026E0005CFD01E03FF02FFDBAF1000F04460D46FE
:1026F00001D084F00044002108464FF00000099901
:1027000040F2FF77484010F00C0F07D124F0004052
:10271000284303D0C4F30A50B84212D1FFF764F83B
:10272000C0F80090C4F30A50B8420AD1A8487844CF
:10273000D0E90010C6E9001004F0004108437060C1
:1027400042E7C6E900543FE72DE9FF4F1F464FF02F
:10275000000A4FF0FF38454691B0D7E90146CDF861
:102760003CA000F091FAC0680168405C1090B96923
:1027700012986D1C8847396A814688470028F6D12F
:10278000B9F1FF3F0AD0002E24F4D06411DDB9F175
:102790002B0F08D0B9F12D0F0BD102E0404615B038
:1027A00013E744F48064B96912986D1C8847761E5B
:1027B0008146600504A901D52D2000E02B20002EC4
:1027C00001F1010B0DF130088DF810003FDDB9F17A
:1027D000690F08D0B9F1490F05D0B9F16E0F02D0D9
:1027E000B9F14E0F1CD13B4601A8009580E850027C
:1027F000DDE912126FF002003FF0F0FFC11CCED1F4
:102800000EE0B96912986D1C884781461398761EB0
:1028100044F4007405600F98401C002E0F9016DDE4
:10282000B9F1300FEDD0B9F1780F02D0B9F1580FEE
:102830000DD10F9801280AD13B46CDE90054DDE9BE
:102840001212001F02963FF0C7FFC11CA7D11099BA
:1028500089453ED144F0800406E01399681CAAF132
:10286000010A44F400740860B9696D1C1298761E60
:10287000884730288146F0D02BE01099894505D152
:10288000200603D4761E44F0800418E048463FF04A
:10289000ABFE08B3761E0DF123029345A9F130007B
:1028A00044F4007406D20BF8010B200607D5AAF1F8
:1028B000010003E0200602D40AF101008246A005CF
:1028C00002D51399681C0860B96912986D1C884775
:1028D0008146002ED1DC53E0002E51DDB9F1650FA9
:1028E00002D0B9F1450F4BD1A00549D5B9696D1C8E
:1028F0001298761E24F440748847002E81460CDD21
:102900002B2804D0B9F12D0F07D144F48074B96994
:1029100012986D1C8847761E8146E00501D52D2151
:1029200000E02B2108F8011BCDF8008021E0761E85
:102930000DF13901884544F400740CD2A9F130003E
:1029400010F0FF0088F8000002D10099884509D9ED
:1029500008F1010806E0E00501D51E4801E042F259
:102960000F708246B96912986D1C8847814613988A
:102970000560002E04DD48463FF036FE0028D6D123
:10298000F96912988847FF2053468BF8000088F8B1
:10299000000000200A900B9004AA0CA90AA8FFF7D7
:1029A000ADFDA00502D46FF00100F8E614F0240F8D
:1029B00012D0E0071CD13868DDE90A12031D3B6024
:1029C0000068C0E9001213E01C1304000E13040099
:1029D000D2110400F1D8FFFF0AA968463FF0A8FD14
:1029E000E00705D13868009A011D3960006802606F
:1029F0002846D4E610B508E030F8024B9C4204D1DA
:102A00000AB1002010BD012010BD491EF4D21046AD
:102A100010BD000010B542485421FDF7A5FF414804
:102A20005421FDF7A1FF40485421FDF79DFF3F4988
:102A30003B483C4A3F4B08603D490A603A491960AF
:102A4000531C0365481C1065012008653B48344A47
:102A500039A1784400F024FA20B9384878440A387B
:102A600000F0E2FA37482F4A35A1784400F018FA0E
:102A700020B9344878440A3800F0D6FA32482A4A55
:102A80002FA1784400F00CFA20B92F4878440A3876
:102A900000F0CAFA40232248DC000021224600F060
:102AA000DBF920B125487844543800F0BDFA1D48C0
:102AB00022464023002100F0CFF920B1214878447C
:102AC000543800F0B1FA184822461023002100F0D3
:102AD000C3F9002806D01C487844BDE81040563899
:102AE00000F0A2BA10BD104870B5006D20F00104CE
:102AF0000B4800F04DFA0B4800F04AFA0A4800F083
:102B000047FA09E0206D20F00105204600F040FA68
:102B10002046FDF799FF2C46002CF3D170BD000034
:102B2000380200248C020024E00200240400002467
:102B3000080000240C0000247200000021FE0300A5
:102B4000770000000DFE0300F9FD0300F8B51646FE
:102B50000C46054600F090F8036893F8010101283F
:102B600004D0185D78B101202C80F8BDD3F80301A2
:102B70003246214603F20313C71868460023B847BC
:102B800000992980F8BD4FF0FF30F8BD2DE9F041E4
:102B900016460C46054600F06FF8036893F80101ED
:102BA000012807D0FF2C12D8185D80B101202C70AD
:102BB000BDE8F081D3F807013246214603F207133E
:102BC000C7182846BC46BDE8F041002360474FF0D7
:102BD000FF30EDE72DE9F0410646FEF701FE8046A5
:102BE000454613E016B1E068B0420ED12068286077
:102BF000D4E90101D8F8007088472046FDF724FF8A
:102C0000D8F80000B842EBD100E025462C68002C33
:102C1000E8D1BDE8F08110B500F0EEF9BDE8104054
:102C200000F0E5B900487047340300247546FFF70B
:102C3000F9FFAE4605006946534620F00700854679
:102C400018B020B5FDF738FCBDE820404FF0000675
:102C50004FF000074FF000084FF0000BAC46ACE817
:102C6000C009ACE8C009ACE8C009ACE8C00921F073
:102C700007018D467047000010B500F005F8001DF3
:102C800010BD00BF2DFA0300004870475403002414
:102C9000034640688C46002818BF88423CBF034664
:102CA0004068F8D318681844884207D00CF1030034
:102CB00020F00700001D411A521A0146081D0A6043
:102CC000FDF7C2BEB2F120030AD5C2F1200301FA1A
:102CD00002F120FA03F341EA030100FA02F070471F
:102CE00000FA03F14FF00000704700002DE9F041B9
:102CF0001F46044603260168072A01F4006004DB2E
:102D000008B116A505E016A503E008B115A500E079
:102D100015A521F010002060A069C01EA0610FB1B0
:102D2000401EA0612046FDF71DFF4FB1D4E90121EF
:102D300038469047206A401C2062C01C206206E092
:102D4000206AFAE7D4E9012115F8010B9047761EB5
:102D5000F8D22046FDF71CFFBDE8F0814E414E0041
:102D60006E616E00494E4600696E66002DE9F047BF
:102D7000814616468AB0354878440DC88DE80D0066
:102D800032487844801C03AC0DC884E80D0041F63D
:102D90009B300844372190FBF1F290FBF1F5A5F14F
:102DA000800501FB12041B3C02D56442012000E0B7
:102DB0000020DFF898A080460027FA44AAF1BE0A56
:102DC0000EE0E0070AD03246684607EB47010123D0
:102DD0000AEB81013FF0CCF98DE8070064107F1CFD
:102DE000002CEED1194F7F44AE3F19E0E80715D013
:102DF00007EB04100DF1180A90E80E008AE80E00A7
:102E0000C068F04201D1981908903246012306A902
:102E100003A83FF0ADF903AB83E807006D10641C15
:102E2000002DE3D14FF0010332466946B8F1000F9F
:102E300003A802D03FF072F901E03FF099F9C9E927
:102E40000001C9F808200AB0BDE8F08784FB030040
:102E5000007B00F08000704770B5C468A50713D0F0
:102E6000650211D4B2F5807F09D0B2F5007F06D09B
:102E7000B2F5806F08D1012300F1240106E05D1E48
:102E80006FF07F46B54201D3012070BD0161C3617F
:102E9000416024F470611143C160002070BD0000E6
:102EA0002DE9F0410C461646070047D0104600F0C9
:102EB0006FF82078611C61280AD0722802D0772828
:102EC0003CD102E00125002405E00225042402E0B3
:102ED000082448F2020511F8010B2B2806D06228BD
:102EE00009D011F8010C74280AD00BE045F0030555
:102EF00044F00204EFE745F0040544F00104EAE77A
:102F000044F010043846214600F0B6FC411C15D0B0
:102F10000021316171604FF40071F560F161706101
:102F2000200704D530460222002100F0E9FA306D76
:102F300040F0010030653046BDE8F0810020FBE73D
:102F40002DE9F0410D460646104C206DC10704D016
:102F5000410804D020F00104F7E722460EE0542097
:102F6000FDF743FD07000ED0206D47F00101084337
:102F7000542120653846FDF7F7FC3A46294630468D
:102F8000BDE8F0418CE70020D6E7000038020024BD
:102F90002DE9F04704464FF0FF380026C568D4E914
:102FA0000497A80718D0204600F066FB384600F0CA
:102FB00053F8002800DA4646280502D54846FDF7B2
:102FC00043FD4C212046FDF7CFFC206D20F0010091
:102FD00020653046BDE8F0874046FBE710B5044663
:102FE000AFF300802046BDE81040FDF751BA00283D
:102FF00001D03CF02DB9704710B5002102A000F0BF
:103000007FFB012010BD0000534947414252543A12
:103010002041626E6F726D616C207465726D696EB5
:103020006174696F6E00000010B500F083FBBDE8AD
:103030001040FFF7DCBF10B500F096FBBDE8104074
:10304000FFF7D5BF0EB5CDE90001FDF74EFB0290AD
:1030500069460120ABBE0EBD08B56946009002204E
:10306000ABBE08BD1FB58DE8070069460520ABBEA5
:1030700004B010BD1FB58DE80F0069460620ABBE39
:10308000F6E708B5694600900920ABBE08BD1CB53F
:10309000CDE9000169460A20ABBE1CBD704708B5EA
:1030A000694600900C20ABBE08BD00002DE9FF4F23
:1030B0001F464FF03C0987B04FF00042DDE9141085
:1030C00001F10108DDF858A002EA40500390002009
:1030D00005908346054604460490B969461E089843
:1030E0008847AAF1010A0290BAF1000F3BDD02986D
:1030F0002E2815D01021FFF739F800282EDB4FF0CD
:10310000010B0599014317D0B9F1000F0BDB4A46BB
:10311000C117FFF7D7FD05430C43A9F1040905E0EA
:10312000012004900BE008B145F001050120059055
:10313000049820B9361D02E0049800B1361FB96921
:10314000089808F101088847BBF1000FAAF1010AAD
:103150000290C9D00999C1F80080C5E7029870288B
:1031600008D0502806D0F96908988847BBF1000FAD
:1031700014D04FE0002002900120BBF1000F04901A
:1031800009D0B969089808F101088847AAF101092E
:10319000B9F1000F07DCF969089888476FF0010062
:1031A0000BB0BDE8F08F2B2804D02D280CD14FF0A8
:1031B000FF300490B969089808F101088847A9F11F
:1031C0000109B9F1000FE6DD411CE4D00A21FEF748
:1031D000CDFF0028DFDB029908F1010801EB810136
:1031E00000EB41000290B969089888470A21FEF770
:1031F000BDFF099AA9F10109B9F1000FC2F80080D9
:1032000001DD0028E7DAF9690898884704990298EF
:1032100000FB016655EA040004D004F040410900B7
:1032200002D006E0039898E0A40044EA9574AD004B
:10323000B61E04F00041080002D16D196441761EEB
:10324000159810F0240F03D04FF00B095C4803E0F1
:103250004FF028096FF07D008246564507DAAAEB49
:1032600006018944B9F1410F01DD4FF04109012008
:103270000021A9F10102FFF725FD024628400B4677
:103280002140084301D0012100E00021501E02919D
:1032900043F1FF3128402140084301D0012000E0E4
:1032A00000200299834651EA0B014FD000210846C5
:1032B0004FF00000039900F4400039B100EB8000AA
:1032C0004FF4400100EBD07001EA60008015012846
:1032D00002DD4FF0FF3000E013D0401C36D00298E2
:1032E00060B3BBF1000F0CD14A4601200021FFF76B
:1032F000E9FC28402140084301D0012000E00020E3
:10330000E0B101204A460021FFF7DCFC03464019EA
:103310000A4661412D1A8C4111D3B9F1400F09DDE4
:10332000159810F0240F02D0AAF1340603E0AAF198
:10333000170600E0761C00254FF0004406E05B1EF7
:1033400042F1FF3220EA030521EA0204CAF101003A
:10335000B04206DA1B490398084301900020009010
:103360000EE0039AC4F3D321E80A0A43164940EA5F
:1033700044500A433146CDE9000268463FF0E1F887
:10338000159810F0240F0BD01598C00715D1386888
:10339000DDE90012031D3B600068C0E900120CE08B
:1033A00002A869463FF0C4F81598C00705D13868EF
:1033B000029A011D3960006802604046F0E6000094
:1033C00002FCFFFF0000F07F0000F03F2DE9FF4FFF
:1033D00092461D4685B04FF00041DDE9124BDDE914
:1033E00014727F1E01EA4B50414940F0FF4940EA08
:1033F0000108002122F020004928049102D04E2823
:1034000028D04CE03BA0012607C88DE80700A96939
:103410000698641C88477F1E014606D41DF80600E6
:1034200018B121F0200181420BD0E9690698884744
:10343000032E34D0082E32D06FF0010009B0BDE861
:10344000F08F761C032E01D0082EE0D1601CCAF844
:103450000000DCE7A9690698641C88477F1E2AD40F
:1034600020F02000412826D1A9690698641C8847CD
:103470007F1E20D420F020004E281CD1A969069878
:10348000641C88477F1E48F4002849F48009CAF864
:10349000004001D4282806D0E969069888475FEAE9
:1034A000CB7012D022E0A9690698641C88477F1E61
:1034B00001D4002803DAE96906988847BCE729287F
:1034C000F1D1641CCAF80040E9E71BF0240F07D0D3
:1034D00028680499031D2B600068C0E9001805E006
:1034E0002868021D2A600068C0F800902046A5E701
:1034F0000000F07F494E46494E49545900000000F3
:103500002DE9F041044616460D464769007B8007C9
:103510002ED03846FFF7B5FD50BB3EB3012E02D08A
:10352000022E25D104E0204600F084F905441DE078
:103530003846FFF7B4FDE168002841F01001E16072
:1035400005DA204600F058F80120BDE8F081C903F3
:103550000BD56268E16A914200D81146A269114414
:103560002269891A814200DD08460544002D01DAEE
:103570000220EAE7E16A6068E268814206D29103CC
:10358000E06203D522F4003141F01002A669002761
:10359000AE4213DCE16A814201D90B4600E00346EA
:1035A00003EB060C2369ACEB030CAC4506DD814252
:1035B00001D98C4600E084469C4505D1A760276070
:1035C00042F02000A5620DE0AD1BE669AE1B814212
:1035D000A66000D90846C01A281A206058196060F1
:1035E00022F0200003490840E060002084F8487081
:1035F000ABE70000BFCFD7FFC16821F4001141F055
:103600008001C16000218160016070472DE9F74FA2
:1036100015460C464FF0FF3B3848D768D2F814A047
:10362000074209D05046A969FFF731FD002819DB90
:103630003248C0430740EF604FF000496FF0004848
:103640004C4501D3464600E0264600993B4650468D
:103650003246FFF707FDA96920F00042B21A114473
:10366000A96128B12846FFF7C7FF5846BDE8FE8F7D
:10367000A41BE5D10020F9E770B504460569C06ACE
:103680006168884200D80846E16821F42011E160B1
:10369000C90312D5A84208D02246411B2846FFF78D
:1036A000B5FF10B14FF0FF3070BD0020E562C4E9F6
:1036B0000150E06820F48030E060002070BD10B55B
:1036C0000446C06820F02000E060A16AA06988423A
:1036D0000DD02046FFF7D0FFE06820F4405040F0C6
:1036E0001000E060A06AA0612069E062606044F2BE
:1036F0004001E0688843E06010BD00001000020057
:1037000070B505460C460A2000E06D1C3BF0A4FD98
:1037100035B128780028F8D102E0641C3BF09CFD0C
:1037200014B120780028F8D1BDE870400A203BF0A1
:1037300093BD000010B5014602A0FFF7E1FF012094
:1037400010BD000053494752545245443A20526537
:103750006469726563743A2063616E2774206F70C8
:10376000656E3A200000000010B5012805D0002148
:1037700003A0FFF7C5FF012010BD09A1F8E7000075
:1037800053494752544D454D3A204F7574206F664A
:103790002068656170206D656D6F727900000000B2
:1037A0003A2048656170206D656D6F727920636F96
:1037B000727275707465640030B44FF0013C50F85B
:1037C000042BCCFA52F451F8043BD51A20D1FCB9A1
:1037D00050F8042BCCFA52F451F8043BD51A17D107
:1037E000B4B950F8042BCCFA52F451F8043BD51A72
:1037F0000ED16CB950F8042BCCFA52F451F8043BBA
:10380000D51A05D1002CDAD030BC4FF0000070473B
:1038100029BAB1FA81F111F01801D1F120008440E8
:10382000F2D1CA40CB4012F0FF0213F0FF0330BCCC
:10383000D01A704710B50146C268900703D09006B1
:1038400007D5886A0AE0FDF7CFFF01210160881ED5
:1038500010BD8B69486818440B69C01A91F848304C
:103860001BB191F84910401A10BD1103FCD5002876
:10387000FADD401E10BD000082B0019000910020D2
:1038800002B070470000000080B584B00390039838
:10389000006842F20001C4F20201884209D0FFE749
:1038A0000398006842F20011C4F20201884209D173
:1038B000FFE742F20830C4F20200006810F4403F13
:1038C00009D129E046F20830C5F60200006810F47C
:1038D000403F21D0FFE70BF02BFA0290039840689D
:1038E0000190B0F5803F0AD0FFE70198B0F5003FA6
:1038F00005D0FFE70198B0F5403F07D00AE00398F4
:10390000C1880298B0FBF1F0029004E002988008B0
:10391000029000E0FFE75FE04FF40020002109F093
:1039200013FA0290039840680090B0F5802F32D0CF
:10393000FFE70098B0F5002F2DD0FFE70098B0F515
:10394000402F28D0FFE70098B0F5801F23D0FFE775
:103950000098B0F5A01F1ED0FFE70098B0F5C01F7B
:1039600019D0FFE70098B0F5E01F1FD0FFE70098DF
:10397000B0F5001F1ED0FFE70098B0F5101F1DD056
:10398000FFE70098B0F5201F1CD0FFE70098B0F5C6
:10399000301F1BD01EE0039841686FF0010000EA61
:1039A00051410298B0FBF1F0029014E00298000936
:1039B000029010E00298400902900CE00298800901
:1039C000029008E00298C009029004E00298000A00
:1039D000029000E0FFE7FFE702984008029002989B
:1039E00045F61061C0F25F01884209D8FFE70398ED
:1039F0000068806820F440700399096888602EE0B0
:103A000002984BF62041C0F2BE0188420AD8FFE777
:103A1000039800688068012161F30920039909680F
:103A200088601BE0029847F64001C0F27D11884291
:103A30000AD8FFE7039800688068022161F3092033
:103A400003990968886008E003980068806840F47A
:103A50004070039909688860FFE7FFE7FFE704B05B
:103A600080BD000000000000FFE7FEE7000000004E
:103A700084B08DF80F000291ADF806209DF80F007C
:103A80000146009123281DD80099DFE801F01213A8
:103A90001415161B1B1B1B1B1B1B1B1B1B1B1B1B88
:103AA0001B1B1B1B1B1B1B1B1B1B1B1B1B1B17186D
:103AB000191A08E007E006E005E004E003E002E090
:103AC00001E000E0FFE7002004B0704700000000C4
:103AD000002070470000000080B582B042F6985088
:103AE000C2F20040009040F6BC11C2F20041002238
:103AF000019213F039FA009840F2BC71C2F2004111
:103B000013F012FA019802B080BD0000000000001E
:103B100080B584B00390029103980299096816F069
:103B200023FA039942F69850C2F20040019013F034
:103B3000FBF9019813F09CF9002004B080BD00004F
:103B400083B0029001918DF8032000208DF80200CF
:103B50009DF9020003B0704780B586B00490ADF8BF
:103B60000E1000208DF80D0042F69850C2F2004071
:103B7000D0F8BC0202900298D0F8140220B1FFE7FE
:103B800001208DF8170013E00499BDF80E2042F6CD
:103B90009850C2F20040019013F0E6F9019813F03A
:103BA000EFFA8DF80D009DF80D008DF81700FFE776
:103BB0009DF8170006B080BD80B543F2CC10C2F26C
:103BC000004003F0E9FA80BD80B543F2BC20C2F2A8
:103BD000004003F0E1FA80BD80B543F23430C2F218
:103BE000004003F0D9FA80BD80B543F25410C2F210
:103BF000004003F0D1FA80BD80B543F24420C2F208
:103C0000004003F0C9FA80BD80B543F21450C2F2FF
:103C1000004003F0C1FA80BD80B543F29C40C2F27F
:103C2000004003F0B9FA80BD80B543F2AC30C2F277
:103C3000004003F0B1FA80BD80B543F22440C2F2E7
:103C4000004003F0A9FA80BD80B543F28C50C2F267
:103C5000004003F0A1FA80BD80B543F20460C2F2D7
:103C6000004003F099FA80BD83B002900298016889
:103C700001201022C4F202029142009000F0A380C1
:103C8000FFE70298016801202822C4F20202914253
:103C9000009000F09880FFE7029801680120402220
:103CA000C4F202029142009000F08D80FFE702987A
:103CB000016801205822C4F202029142009000F0F3
:103CC0008280FFE70298016801207022C4F202029C
:103CD0009142009077D0FFE7029801680120882286
:103CE000C4F20202914200906DD0FFE70298016891
:103CF0000120A022C4F202029142009063D0FFE7AB
:103D0000029801680120B822C4F202029142009098
:103D100059D0FFE702980168012040F21042C4F236
:103D20000202914200904ED0FFE702980168012004
:103D300040F22842C4F202029142009043D0FFE7D1
:103D400002980168012040F24042C4F2020291420E
:103D5000009038D0FFE702980168012040F25842F5
:103D6000C4F20202914200902DD0FFE70298016850
:103D7000012040F27042C4F202029142009022D02F
:103D8000FFE702980168012040F28842C4F2020273
:103D90009142009017D0FFE702980168012040F29D
:103DA000A042C4F20202914200900CD0FFE70298B8
:103DB00000684FF64831CBF6FD710844B0FA80F048
:103DC00040090090FFE70098C00740B3FFE7029862
:103DD000007810384AF6AB21CAF6AA21A0FB0110E0
:103DE00000090190019800F0070142F68410C0F626
:103DF0000400405C0299C8650198042807D3FFE7D6
:103E000002990868042262F30900886506E00299B5
:103E1000086840F2FF3290438865FFE705E00299A9
:103E2000086820F0FF008865FFE70298806D03B006
:103E3000704700000000000084B003900398006801
:103E4000019003980168012045F20842C5F602027C
:103E5000914200904ED0FFE703980168012045F29F
:103E60001C42C5F602029142009043D0FFE703983E
:103E70000168012045F23042C5F6020291420090ED
:103E800038D0FFE703980168012045F24442C5F6A7
:103E90000202914200902DD0FFE7039801680120B3
:103EA00045F25842C5F602029142009022D0FFE747
:103EB00003980168012045F26C42C5F60202914266
:103EC000009017D0FFE703980168012045F2804277
:103ED000C5F60202914200900CD0FFE703980068FB
:103EE0004AF66C31CAF2FD710844B0FA80F040091C
:103EF0000090FFE70098C00710B3FFE70398007831
:103F000008384CF6CD41CCF6CC41A0FB011000099D
:103F10000290029945F60000C5F6020000EB810010
:103F200003990866039945F68000C5F602004866C5
:103F3000029800F01F01012088400399886635E04F
:103F40000398007810384AF6AB21CAF6AA21A0FBE4
:103F5000011000090290019840F2B841C4F2020138
:103F600088420CD8FFE7019840F21041C4F20201E8
:103F7000884204D3FFE7029808300290FFE70299D5
:103F800040F60000C4F2020000EB810003990866CD
:103F9000039940F68000C4F202004866029800F0DF
:103FA0001F010120884003998866FFE704B070472D
:103FB00083B002900298007901900198002800F0E7
:103FC0008A80FFE70198082800F28580FFE70298C1
:103FD0000168012045F20842C5F6020291420090B4
:103FE0004ED0FFE702980168012045F21C42C5F659
:103FF00002029142009043D0FFE70298016801203D
:1040000045F23042C5F602029142009038D0FFE7F7
:1040100002980168012045F24442C5F6020291422D
:1040200000902DD0FFE702980168012045F2584228
:10403000C5F602029142009022D0FFE70298016883
:10404000012045F26C42C5F602029142009017D061
:10405000FFE702980168012045F28042C5F602029E
:10406000914200900CD0FFE7029800684AF66C314C
:10407000CAF2FD710844B0FA80F040090090FFE7F1
:104080000098C00780B1FFE7019945F6FC00C5F62E
:10409000020000EB81000299C866029945F64010C3
:1040A000C5F6020008670FE0019940F6FC00C4F273
:1040B000020000EB81000299C866029940F64010A8
:1040C000C4F202000867FFE70198411E0120884002
:1040D00002994867FFE703B0704700000000000046
:1040E00085B0049000208DF80F000498806918BBFB
:1040F000FFE70498806A029003281BD80299DFE842
:1041000001F0020D0218049890F82F00C00720B1AA
:10411000FFE701208DF80F00FFE70CE00498C06A6C
:10412000B0F1C07F04D1FFE701208DF80F00FFE759
:1041300001E000E0FFE747E004988069B0F5005F28
:1041400026D1FFE70498806A019003281ED80199C0
:10415000DFE801F00206021101208DF80F0016E0E1
:10416000049890F82F00C00720B1FFE701208DF8D8
:104170000F00FFE70BE00498C06AB0F1C07F04D1E4
:10418000FFE701208DF80F00FFE700E0FFE71AE0EE
:104190000498806A0090032804D3FFE7009803285E
:1041A00004D00EE001208DF80F000BE0049890F889
:1041B0002F00C00720B1FFE701208DF80F00FFE7B7
:1041C00000E0FFE7FFE7FFE79DF80F0005B070474D
:1041D00089B008900791069205930898806D049025
:1041E0000898806D03900898016801201022C4F29D
:1041F00002029142029000F00381FFE708980168F3
:1042000001202822C4F202029142029000F0F880BC
:10421000FFE70898016801204022C4F2020291429F
:10422000029000F0ED80FFE7089801680120582215
:10423000C4F202029142029000F0E280FFE7089887
:10424000016801207022C4F202029142029000F043
:10425000D780FFE70898016801208822C4F2020293
:104260009142029000F0CC80FFE70898016801209D
:10427000A022C4F202029142029000F0C180FFE746
:10428000089801680120B822C4F20202914202900B
:1042900000F0B680FFE708980168012040F2104264
:1042A000C4F202029142029000F0AA80FFE708984F
:1042B0000168012040F22842C4F2020291420290B9
:1042C00000F09E80FFE708980168012040F240421C
:1042D000C4F202029142029000F09280FFE7089837
:1042E0000168012040F25842C4F202029142029059
:1042F00000F08680FFE708980168012040F27042D4
:10430000C4F20202914202907AD0FFE70898016855
:10431000012040F28842C4F20202914202906FD022
:10432000FFE708980168012040F2A042C4F20202AF
:104330009142029064D0FFE708980168012040F2A2
:10434000B842C4F202029142029059D0FFE70898A5
:104350000168012045F20842C5F60202914202902E
:104360004ED0FFE708980168012045F21C42C5F6CF
:1043700002029142029043D0FFE7089801680120B1
:1043800045F23042C5F602029142029038D0FFE772
:1043900008980168012045F24442C5F602029142A4
:1043A00002902DD0FFE708980168012045F258429D
:1043B000C5F602029142029022D0FFE708980168F8
:1043C000012045F26C42C5F602029142029017D0DC
:1043D000FFE708980168012045F28042C5F6020215
:1043E000914202900CD0FFE7089800684AF66C31C1
:1043F000CAF2FD710844B0FA80F040090290FFE76C
:104400000298C00770B1FFE70898416E806E48605F
:104410000898C06E28B1FFE70898016F406F4860A8
:10442000FFE7FFE70898016801201022C4F20202AA
:104430009142019000F0A380FFE7089801680120F5
:104440002822C4F202029142019000F09880FFE716
:104450000898016801204022C4F2020291420190B2
:1044600000F08D80FFE70898016801205822C4F20F
:1044700002029142019000F08280FFE708980168F3
:1044800001207022C4F202029142019077D0FFE72E
:104490000898016801208822C4F20202914201902A
:1044A0006DD0FFE7089801680120A022C4F2020243
:1044B0009142019063D0FFE7089801680120B8227B
:1044C000C4F202029142019059D0FFE708980168B6
:1044D000012040F21042C4F20202914201904ED0FB
:1044E000FFE708980168012040F22842C4F2020266
:1044F0009142019043D0FFE708980168012040F203
:104500004042C4F202029142019038D0FFE708987D
:104510000168012040F25842C4F202029142019027
:104520002DD0FFE708980168012040F27042C4F2E4
:1045300002029142019022D0FFE708980168012011
:1045400040F28842C4F202029142019017D0FFE784
:1045500008980168012040F2A042C4F20202914290
:1045600001900CD0FFE7089800684FF64831CBF671
:10457000FD710844B0FA80F040090190FFE701980E
:10458000C00750B3FFE70898C06D00F01F013F203F
:1045900088400499886008980168086820F48020A1
:1045A000086005980899096848600898806840285C
:1045B00009D1FFE706980899096888600798089963
:1045C0000968C86008E00798089909688860069833
:1045D00008990968C860FFE782E00898016801202F
:1045E00045F20842C5F60202914200904ED0FFE724
:1045F00008980168012045F21C42C5F6020291426A
:10460000009043D0FFE708980168012045F230424E
:10461000C5F602029142009038D0FFE70898016881
:10462000012045F24442C5F60202914200902DD08D
:10463000FFE708980168012045F25842C5F60202DA
:104640009142009022D0FFE708980168012045F2CE
:104650006C42C5F602029142009017D0FFE708981D
:104660000168012045F28042C5F6020291420090A5
:104670000CD0FFE7089800684AF66C31CAF2FD7169
:104680000844B0FA80F040090090FFE70098C007A6
:1046900020B3FFE70898C06D00F01F01012088409B
:1046A00003994860059808990968486008988068E7
:1046B000402809D1FFE7069808990968886007989B
:1046C00008990968C86008E007980899096888602F
:1046D000069808990968C860FFE700E0FFE7FFE770
:1046E00009B07047000000007047000000000000A3
:1046F00080B54FF4806006F053F94FF4805006F017
:104700004FF980BD0000000081B0EFF3108072B659
:104710000090FFE7FEE7000080B543F27C60C2F244
:10472000004005F01DFA80BD80B543F21C70C2F256
:10473000004005F015FA80BD80B543F2BC70C2F2AE
:10474000004005F00DFA80BD84B002900298406BE5
:10475000009002980068D0F884004FF6FC718843FE
:10476000009940EA810002990968C1F88400029822
:104770000068D0F8840020F47F00029A1168926BE0
:1047800040EA0240C1F884000298816B0098084416
:10479000009002980068D0F888006FF38F000099AD
:1047A00040EA810002990968C1F88800029800680F
:1047B000D0F8880020F4FE00029A1168D26B40EA1B
:1047C0000240C1F888000298C16B009800EB4100DC
:1047D000009002980068D0F8A0006FF38F00009955
:1047E00040EA810002990968C1F8A00002980068B7
:1047F000D0F8A00020F4FE00029A1168126C40EA82
:104800000240C1F8A0000299086C496C009A00FBB4
:104810000120009002980068D0F8B0006FF38F007C
:10482000009940EA810002990968C1F8B000029835
:104830000068D0F8B00020F4FE00029A1168926C73
:1048400040EA0240C1F8B0000299886CC96C009A35
:1048500000FB0120009002980068D0F8AC006FF3D4
:104860008F00009940EA810002990968C1F8AC0004
:104870000299086D496D009A00FB01200090029892
:104880000068D0F8F0006FF38F00009940EA8100D3
:1048900002990968C1F8F00002980068D0F8F000A9
:1048A00020F47C10029A1168926D40EA0240C1F82F
:1048B000F0000298816D009800EB41000090029892
:1048C0000068D0F8C0006FF38F00009940EA8100C3
:1048D00002990968C1F8C00002980068D0F8C000C9
:1048E00020F47C10029A1168D26D40EA0240C1F8AF
:1048F000C00002980068D0F8C00020F07C50029AF6
:104900001168126E40EA0260C1F8C00002994A6B59
:104910004AF60040C4F2000000EB8200C86602992B
:104920008A6BC86E00EB820008670299CA6B086F39
:1049300000EBC200486702990A6C4B6C486F5A43FF
:1049400000EB8200886702998A6CCB6C886F5A43AF
:1049500000EB8200C86702990A6D4B6DC86F5A431D
:1049600000EB8200C1F8800002998A6DD1F88000C6
:1049700000EBC200C1F884000299CA6D8B6ED1F8B9
:1049800084005A4300EB8200C1F8880002990A6E45
:104990008B6ED1F888005A4300EB8200C1F890007A
:1049A0000298D0F890004DF2FD31C4F20001884227
:1049B0000FD3FFE70299D1F89C0040F02000C1F826
:1049C0009C000299032081F8980001208DF80F00C7
:1049D00017E00298C06E0190FFE701980299D1F8A4
:1049E0009010884208D2FFE7019900200860FFE795
:1049F000019804300190F0E7FFE700208DF80F00E8
:104A0000FFE79DF80F0004B07047000000000000B1
:104A100088B007900691059204930698406848B9BB
:104A2000FFE70698016882680069104340EA814008
:104A3000039009E006980168826800691043084302
:104A400040F080400390FFE70698D0F820C0C1688E
:104A500042698369C06940EA0C601843104340EA28
:104A6000014002900798826ED0F884000499514367
:104A700000EB8100019003980199086001980430CF
:104A8000019002980199086001980430019000207B
:104A90000090FFE700980699CA6842F67411C0F6C4
:104AA0000401895C88420DD2FFE7059800994058BF
:104AB00001990860019804300190FFE700980430E4
:104AC0000090E7E708B0704780B584B04EF600006C
:104AD000C1F6F170006803904EF60400C1F6F17063
:104AE000006802904EF60800C1F6F170006801906F
:104AF0000199039808440390039888B1FFE703984D
:104B000040F2F001C2F200410091023108220EF0A1
:104B100007FA00990298123104220EF001FAFFE719
:104B200004B080BD0000000080B5AAB02890279195
:104B300000208DF89B002798006808B1FFE7FFE789
:104B4000FFE7289890F85C00012804D1FFE70220D5
:104B50008DF8A7002DE12899012081F85C00FFE77E
:104B6000FFE70020219022902898006842F200017F
:104B7000C4F20201884206D1FFE742F20010C4F2FB
:104B80000200099002E000200990FFE7099878B937
:104B9000FFE72899086E40F020000866FFE7289993
:104BA000002081F85C00FFE701208DF8A70000E1FC
:104BB00009980EF059FA0890289800680EF054FAF7
:104BC000002840F0E280FFE70898002840F0DD80F0
:104BD000FFE728980168012042F20002C4F20202B5
:104BE000914207900CD0FFE7289800684DF60071BD
:104BF000CBF6FD710844B0FA80F040090790FFE75A
:104C00000798C10746F20030C5F6020000291CBF14
:104C100042F20030C4F20200259027980068002874
:104C20005ED0FFE72598806820F4404027994968C6
:104C300008432599886028980168012042F2000203
:104C4000C4F20202914206900CD0FFE72898006857
:104C50004DF60071CBF6FD710844B0FA80F04009C2
:104C60000690FFE70698C10746F20030C5F602003D
:104C700000291CBF42F20030C4F2020042F20031AF
:104C8000C4F20201884212D1FFE742F20000C4F2EE
:104C900002000EF0D1F9049042F20010C4F20200BA
:104CA0000EF0CAF9014604980843059007E046F261
:104CB0000000C5F602000EF0BFF90590FFE7059869
:104CC00068B9FFE72598806840F61F718843279AE6
:104CD000116892681143084325998860FFE753E003
:104CE0002599886820F44040886028980168012050
:104CF00042F20002C4F20202914203900CD0FFE79C
:104D0000289800684DF60071CBF6FD710844B0FAA2
:104D100080F040090390FFE70398C10746F2003096
:104D2000C5F6020000291CBF42F20030C4F20200A6
:104D300042F20031C4F20201884212D1FFE742F28E
:104D40000000C4F202000EF077F9019042F2001068
:104D5000C4F202000EF070F9014601980843029077
:104D600007E046F20000C5F602000EF065F9029079
:104D7000FFE7029838B9FFE72599886840F61F7267
:104D800090438860FFE7FFE708E02899086E40F04D
:104D90002000086601208DF89B00FFE7FFE72899B7
:104DA000002081F85C00FFE79DF89B008DF8A700CC
:104DB000FFE79DF8A7002AB080BD000000000000BA
:104DC00080B5CEB03A90399100208DF8E30035904F
:104DD0003A9890F84400012801D1FFE70BE03A9897
:104DE000006846F20001C5F60201884201D1FFE7E2
:104DF00000E0FFE7FFE73998C0680021C4F2FF71C7
:104E0000884201D0FFE71EE03A98006842F20001B4
:104E1000C4F20201884201D1FFE7FFE73A98006837
:104E200042F20011C4F20201884201D1FFE7FFE71C
:104E30003A98006846F20001C5F60201884201D1A5
:104E4000FFE7FFE7FFE7FFE73A9890F85C000128EB
:104E500005D1FFE702208DF8EF0000F043BE3A993C
:104E6000012081F85C00FFE7FFE73A9800680EF048
:104E7000F3F8002840F02286FFE73998C078000652
:104E8000002837D4FFE73A98006846F20001C5F6DB
:104E9000020188422DD0FFE739980068000330B93D
:104EA000FFE739980068C0F38460329015E03998C4
:104EB000006890FAA0F04C904C9820B9FFE72020B1
:104EC0008DF8370105E04C98B0FA80F08DF8370185
:104ED000FFE79DF837013290FFE7329800F01F019D
:104EE000012000FA01F23A980168C8691043C861CC
:104EF000FFE7FFE73A98006839990A6849680EF0B9
:104F0000BBF83A9800680EF0A7F834903A98006819
:104F10000EF07AF833903498002840F05A82FFE778
:104F20003398002840F05582FFE73A980068399A94
:104F3000116892680EF0F8F83A98006846F200019D
:104F4000C5F6020188420BD1FFE7399840693A99CA
:104F50000968C96801F0180189088840379038E06D
:104F600041F20000C5F60040006800F07040B0F16A
:104F7000805F0BD1FFE7399840693A990968C968A1
:104F800001F01C014908884031901FE03A98006800
:104F9000C068C00600280BD4FFE7399840693A99E9
:104FA0000968C96801F01C014908884030900AE08E
:104FB000399840693A990968C96801F010014908AF
:104FC00088403090FFE730983190FFE73198379074
:104FD000FFE739980069042841D0FFE73A98006854
:104FE00039990A680969379B0EF026F93A980068E2
:104FF00046F20001C5F60201884215D1FFE73A9852
:105000000068399A1169D2690EF066F93A98006819
:10501000399A116992F82020013AB2FA82F25209C3
:1050200052060EF039F919E03A980068399A116978
:1050300092F82120013AB2FA82F25209D2070EF018
:105040006BF93A980068399A1169127E013AB2FAFE
:1050500082F25209D2020EF0DBF8FFE7B8E13A988B
:10506000006846F20001C5F60201884240F0668100
:10507000FFE73A98006800210DF0B6FF000348B939
:10508000FFE73A98006800210DF0AEFFC0F384609E
:105090002F9018E03A98006800210DF0A5FF90FAD3
:1050A000A0F04A904A9820B9FFE720208DF82F0100
:1050B00005E04A98B0FA80F08DF82F01FFE79DF8DF
:1050C0002F012F90FFE72F982E903998006800034A
:1050D00030B9FFE739980068C0F384602D9015E07F
:1050E0003998006890FAA0F04890489820B9FFE7F6
:1050F00020208DF8270105E04898B0FA80F08DF85F
:105100002701FFE79DF827012D90FFE72E982D99A5
:10511000884207D1FFE73A980068002211460EF056
:105120001BF9FFE73A98006801210DF05DFF0003CD
:1051300048B9FFE73A98006801210DF055FFC0F328
:1051400084602C9018E03A98006801210DF04CFF23
:1051500090FAA0F04690469820B9FFE720208DF8FD
:105160001F0105E04698B0FA80F08DF81F01FFE7B7
:105170009DF81F012C90FFE72C982B903998006820
:10518000000330B9FFE739980068C0F384602A90C3
:1051900015E03998006890FAA0F04490449820B93E
:1051A000FFE720208DF8170105E04498B0FA80F061
:1051B0008DF81701FFE79DF817012A90FFE72B985C
:1051C0002A99884207D1FFE73A9800680121002216
:1051D0000EF0C2F8FFE73A98006802210DF004FFD4
:1051E000000348B9FFE73A98006802210DF0FCFE81
:1051F000C0F38460299018E03A98006802210DF00D
:10520000F3FE90FAA0F04290429820B9FFE72020E8
:105210008DF80F0105E04298B0FA80F08DF80F018B
:10522000FFE79DF80F012990FFE72998289039980A
:105230000068000330B9FFE739980068C0F3846064
:10524000279015E03998006890FAA0F040904098B7
:1052500020B9FFE720208DF8070105E04098B0FA5B
:1052600080F08DF80701FFE79DF807012790FFE721
:1052700028982799884207D1FFE73A9800680221C9
:1052800000220EF069F8FFE73A98006803210DF05C
:10529000ABFE000348B9FFE73A98006803210DF020
:1052A000A3FEC0F38460269018E03A9800680321BA
:1052B0000DF09AFE90FAA0F03E903E9820B9FFE7DC
:1052C00020208DF8FF0005E03E98B0FA80F08DF8C0
:1052D000FF00FFE79DF8FF002690FFE72698259046
:1052E00039980068000330B9FFE739980068C0F3C7
:1052F0008460249015E03998006890FAA0F03C9002
:105300003C9820B9FFE720208DF8F70005E03C9895
:10531000B0FA80F08DF8F700FFE79DF8F7002490D1
:10532000FFE725982499884207D1FFE73A9800685B
:10533000032100220EF010F8FFE748E03A980068D9
:10534000006E00F0F84039990968B0EB816F07D121
:10535000FFE73A980168086E20F000400866FFE712
:105360003A980068406E00F0F84039990968B0EB4F
:10537000816F07D1FFE73A980168486E20F000403E
:105380004866FFE73A980068806E00F0F840399967
:105390000968B0EB816F07D1FFE73A980168886E22
:1053A00020F000408866FFE73A980068C06E00F081
:1053B000F84039990968B0EB816F07D1FFE73A9857
:1053C0000168C86E20F00040C866FFE7FFE7FFE70E
:1053D000FFE73A9800680DF027FE002840F06D8343
:1053E000FFE73A980068399A1168D2680DF0B8FE64
:1053F0003998C0680021C4F2FF71884240F0F981F9
:10540000FFE73A980068239042F20001C4F20201DB
:10541000884240F0A480FFE7399800680221C0F27A
:105420003041884203D1FFE70120229094E039986F
:1054300000680421C0F66001884205D1FFE74020E2
:10544000C1F62010219084E0399800680821C0F648
:105450009041884205D1FFE78020C1F6505020904E
:1054600074E0399800681021C1F2C001884206D169
:10547000FFE740F20010C2F280101F9063E03998FD
:1054800000682021C1F2F041884206D1FFE740F2D6
:105490000020C2F2B0501E9052E03998006840F2ED
:1054A0000041C2F60021884206D1FFE740F6000025
:1054B000C2F630601D9040E03998006840F6000167
:1054C000C2F63061884206D1FFE741F20000C3F224
:1054D00060201C902EE03998006841F20001C3F270
:1054E0006021884206D1FFE742F20000C3F29060DB
:1054F0001B901CE0399800680021C4F221318842D9
:1055000005D1FFE70020C4F252701A900CE03998E0
:1055100001680022C4F684320020914204BF0020BA
:10552000C4F6B8701A90FFE71A981B90FFE71B9813
:105530001C90FFE71C981D90FFE71D981E90FFE749
:105540001E981F90FFE71F982090FFE7209821905A
:10555000FFE721982290FFE72298199044E13A98BA
:10556000006842F20011C4F20201884240F09480C7
:10557000FFE7399800680221C0F23041884203D128
:10558000FFE70120189084E0399800680421C0F6F4
:105590006001884205D1FFE74020C1F62010179036
:1055A00074E0399800680821C0F69041884205D11E
:1055B000FFE78020C1F65050169064E039980068EB
:1055C0001021C1F2C001884206D1FFE740F200106D
:1055D000C2F28010159053E0399800682021C1F282
:1055E000F041884206D1FFE740F20020C2F2B050FD
:1055F000149042E03998006840F20041C2F6002160
:10560000884206D1FFE740F60000C2F630601390F2
:1056100030E03998006840F60001C2F630618842F7
:1056200006D1FFE741F20000C3F2602012901EE0B5
:105630003998006841F20001C3F26021884206D126
:10564000FFE742F20000C3F2906011900CE039983D
:1056500001680022C4F684320020914204BF002079
:10566000C4F6B8701190FFE711981290FFE71298F6
:105670001390FFE713981490FFE714981590FFE735
:1056800015981690FFE716981790FFE7179818904F
:10569000FFE718981090A4E03A98006846F20001DD
:1056A000C5F60201884240F09680FFE7399800680D
:1056B0000221C0F23041884203D1FFE701200F9060
:1056C00086E0399800680421C0F66001884205D15F
:1056D000FFE74020C1F620100E9076E03998006870
:1056E0000821C0F69041884205D1FFE78020C1F62D
:1056F00050500D9066E0399800681021C1F2C00149
:10570000884206D1FFE740F20010C2F280100C90F0
:1057100055E0399800682021C1F2F041884206D155
:10572000FFE740F20020C2F2B0500B9044E03998FD
:10573000006840F20041C2F60021884206D1FFE72E
:1057400040F60000C2F630600A9032E039980068F6
:1057500040F60001C2F63061884206D1FFE741F20F
:105760000000C3F26020099020E03998006842F2FE
:105770000001C3F29061884206D1FFE744F20000C5
:10578000C3F6C02008900EE03998016844F2000288
:10579000C3F6C0220020914204BF48F20000C3F6C5
:1057A000F0600890FFE708980990FFE709980A90D1
:1057B000FFE70A980B90FFE70B980C90FFE70C9817
:1057C0000D90FFE70D980E90FFE70E980F90FFE702
:1057D0000F98079002E000200790FFE707981090CD
:1057E000FFE710981990FFE7239819990DF064FCD2
:1057F000FFE73998C0780006002840F15D81FFE797
:105800003A980168012042F20002C4F20202914279
:1058100006900CD0FFE73A9800684DF60071CBF681
:10582000FD710844B0FA80F040090690FFE7069841
:10583000C10746F20030C5F6020000291CBF42F243
:105840000030C4F202000DF0C7FB36903A980168B0
:105850004FF0010042F20002C4F2020291420590B0
:105860000CD0FFE73A9800684DF60071CBF6FD7159
:105870000844B0FA80F040090590FFE70598C10799
:1058800046F20030C5F6020000291CBF42F200308B
:10589000C4F2020042F20031C4F20201884212D185
:1058A000FFE742F20000C4F202000DF0BDFB0390DE
:1058B00042F20010C4F202000DF0B6FB014603985C
:1058C0000843049007E046F20000C5F602000DF020
:1058D000ABFB0490FFE70498002840F0E380FFE76B
:1058E000399800680021CCF25271884255D1FFE707
:1058F0009DF8DA00000600284FD4FFE73A980068C8
:1059000046F20001C5F60201884245D1FFE73A9808
:105910000168012042F20002C4F2020291420290A8
:105920000CD0FFE73A9800684DF60071CBF6FD7198
:105930000844B0FA80F040090290FFE70298C107DE
:1059400046F20030C5F6020000291CBF42F20030CA
:10595000C4F20200369941F400010DF049FC40F216
:105960003400C2F2004000684FEA901042F66351E2
:10597000C0F23E51A0FB01104FEA90114FF002001F
:1059800000EB41003590FFE7359820B1FFE73598EF
:1059900001383590F8E7FFE783E039980068002187
:1059A000CCF22131884238D1FFE79DF8DB00C007F7
:1059B00098BBFFE73A98006846F20001C5F602017D
:1059C000884229D1FFE73A980168012042F200029B
:1059D000C4F20202914201900CD0FFE73A980068AD
:1059E0004DF60071CBF6FD710844B0FA80F0400925
:1059F0000190FFE70198C10746F20030C5F60200AA
:105A000000291CBF42F20030C4F20200369941F076
:105A100080710DF0EDFBFFE742E03998006800214E
:105A2000CCF68431884239D1FFE79DF8DA00400690
:105A3000002833D4FFE73A98006846F20001C5F623
:105A40000201884229D1FFE73A980168012042F219
:105A50000002C4F20202914200900CD0FFE73A9893
:105A600000684DF60071CBF6FD710844B0FA80F085
:105A700040090090FFE70098C10746F20030C5F6E4
:105A8000020000291CBF42F20030C4F20200369925
:105A900041F480010DF0ACFBFFE700E0FFE7FFE71A
:105AA000FFE708E03A99086E40F020000866012000
:105AB0008DF8E300FFE7FFE7FFE708E03A99086E9B
:105AC00040F02000086601208DF8E300FFE7FFE7C3
:105AD0003A99002081F85C00FFE79DF8E3008DF81B
